:020000040001F9
:10B0000010400020D5B00100EFB00100F1B0010008
:10B010000000000000000000000000000000000030
:10B02000000000000000000000000000F3B001007C
:10B030000000000000000000F5B00100F7B00100C2
:10B0400081BE0100F9B00100BDBF0100F9B00100EF
:10B05000F9B0010000000000C5BC0100C9B9010041
:10B06000F9B00100F9B00100F9B00100F9B0010038
:10B07000F9B00100F9B00100F9B00100F9B0010028
:10B08000F9B00100D5BE0100F9B00100F9B001002E
:10B09000F5BE0100F9B00100FDBE0100F9B00100EC
:10B0A000F9B00100F9B0010000000000000000004C
:10B0B0000000000000000000000000000000000090
:10B0C0000348854600F042FC0048004701E10100CA
:10B0D000104000200321094802680A430260084822
:10B0E00002680A4302600748804707480047FEE7B6
:10B0F000FEE7FEE7FEE7FEE7FEE70000240500406E
:10B10000540500401DBF0100C1B0010030B50B4621
:10B11000014600202022012409E00D46D5409D4231
:10B1200005D31D469540491B2546954040191546B7
:10B13000521E002DF1DC30BD03460B439B0703D0AC
:10B1400009E008C9121F08C0042AFAD203E00B78EC
:10B150000370401C491C521EF9D27047D2B201E064
:10B160000270401C491EFBD270470022F6E710B562
:10B1700013460A4604461946FFF7F0FF204610BD65
:10B1800003460A780270401C491C002AF9D118466F
:10B190007047F8B502464A40D40F42004B005208AF
:10B1A0005B089A4202D20246084611464A0023D062
:10B1B000C30D4A00DDB2120EAD1A202D35DA490258
:10B1C0000126490AF6058A19002C00D05242202196
:10B1D0004F1B1146B9402A411018C20D9A4221D086
:10B1E000002C17D0012D08DCDA05801AD20F801947
:10B1F000D207DBB200F0DEFAF8BDDA05801A0123CF
:10B2000040001B06C01880185A428018CA0F10430D
:10B21000490007E04908C2071143DA05801A80197E
:10B220004008801800F0BEFAF8BD61000122511AF2
:10B23000001BF7E70122D2075140AAE70122D207FB
:10B240005040A6E7024670B54A40D30FDB074000E6
:10B250002DD04A002AD0010E140E00021202091944
:10B26000400A520A8418E50104465443000A120AAF
:10B270002E045043A4194219200CC543AA18120CDD
:10B280000125AD03521C521912047F39240400D049
:10B29000521C104301D44000491EC2B20C06C00922
:10B2A0002018401C4008802A02D003E0002070BD16
:10B2B00040084000002900DA0020184370BD00005B
:10B2C000F0B507460846584087B0C00F04904800C4
:10B2D0000E46590040084908BC1A884105D2384634
:10B2E00031461E4617460B4602465800400810439A
:10B2F0004CD0300D039040055900400D490D05908C
:10B30000401A0290402872DA18030121000B090547
:10B310000843019004980092002805D001995242F8
:10B320000020884100920190029840210A1A019958
:10B33000009800F003FA05460C466B4607CB00F078
:10B340001EFAC0197141039A0E0D0023D7175640FB
:10B350001A467A40164344D0049A002A2DD0029A05
:10B36000012A039A15DC1205C01A914101263605FF
:10B37000001C7141D20F059ED207009301920296E4
:10B380002A46234600F05CFA07B0F0BD3846314645
:10B39000FAE71605224A0F46B218C01AB741012132
:10B3A0000905001C4F4100187F41114618187941CA
:10B3B000E20F10436D19644113E0E2076D08154375
:10B3C0006408C2071443039A01261205C01A91416A
:10B3D0003605001C7141CE07400830434908C018AB
:10B3E00051412A46234600F01EFACDE7FFE70498B4
:10B3F00001224000C117121A00238B4104983146E4
:10B40000C417381AA141EEE730B40124E4076340C1
:10B4100030BC55E730B40124E407614030BC4FE74D
:10B420000000E0FFF0B51FB488B00B990998002424
:10B4300048400999C00F490049080991C0070B9974
:10B440000090490049080B9109990898A6460843BD
:10B450001CD00B990A98084318D009980124400081
:10B46000420D4800410D099824050003000B2043BC
:10B4700009900B980003000B20430B9050181C49B7
:10B480004018002201901446104605E000200146B5
:10B490000DB0F0BD032801DA034600E003239C460B
:10B4A000C11A0AAE0AE05F0008ADED5B4F00F75B22
:10B4B0007D430027AA187C41491C5B1E6145F2DDD3
:10B4C000410004AB5A522104120C0A43240C401CC4
:10B4D0000828DFDB019802900099704601910090E6
:10B4E000059B049A0799069800F0AAF9D0E7000096
:10B4F0000DFCFFFFF0B50C465C4085B0E40FE4079F
:10B5000003944C00002664085900944649080246FA
:10B510000296224321D062460A431ED06200570D94
:10B520004A000E032303550D012402462C4924052D
:10B53000781B1B0B360B40182343264361460090B3
:10B540001C46501AB44103D30098401C009002E0FE
:10B55000921800985B41002803DA0020014605B0EC
:10B56000F0BD0020012109050746864611E064462A
:10B570001D46141BB54106D36546521BB3417446A4
:10B5800007430C43A646CD074008490828439218B4
:10B590005B4105460D43EAD11046184313D060467F
:10B5A000194650407140084306D06046101AB34116
:10B5B00006D20122002306E000220123DB0702E07D
:10B5C0000122D2435310009874460105381C614192
:10B5D000029C039D0019694100F025F9BFE70000B6
:10B5E000FD03000070B54B005B0803430BD04B001C
:10B5F0005C0D002633466542B341D417AD1AA34112
:10B6000002DB0020014670BD12053018514170BDAB
:10B61000C217C10F504010B54018CA079623002129
:10B6200000F0C8F810BD10B500229623114600F0B6
:10B63000C1F810BD0EB5C217C10F5040CA0740185F
:10B640000021054B0293019200910A460B4600F03F
:10B65000F7F803B000BD0000330400000EB5054943
:10B660000291002100910A460B46019100F0E8F892
:10B6700003B000BD330400004A0009030123090B95
:10B680001B051943094B10B5520D9A4201DA0020EF
:10B6900010BD064B34339A4203DC9A1A00F05EF870
:10B6A00010BD03495118884010BD0000FF03000081
:10B6B000CDFBFFFFC20FD207400040080BD0C10DE9
:10B6C0000723DB01C91840020905400A1143C208DB
:10B6D000400711437047002001467047F0B51FB482
:10B6E0000646002082B005464024019100901BE0F0
:10B6F000019922460F46304600F030F8049A059B27
:10B70000801A994110D310461946224600F016F8C7
:10B71000361A8F410197224601200021009F00F038
:10B720000DF838184D4100902046641E0028DFDCDB
:10B73000019B00982946324607B0F0BD10B5202A7B
:10B7400004DB0146203A9140002010BD91402023A7
:10B750009C1A0346E3401943904010BD10B5202ABF
:10B7600004DB0846203AD040002110BD0B46D340F0
:10B77000D0402024A21A91400843194610BD10B5AC
:10B78000202A06DBCB170846203A1041C1170B438D
:10B7900006E00B461341D0402024A21A91400843F2
:10B7A000194610BD002904DA401C490001D14008A7
:10B7B0004000704770B40024050C05D1102400042B
:10B7C00002D1002921D01124050E01D10002083434
:10B7D000050F01D10001241D850F01D18000A41C9B
:10B7E000002801DB4000641C002908D020252E1B06
:10B7F0000D46F540A14000D0012129430843010630
:10B800001B1B000ADB1D02D5002070BC7047DB0546
:10B81000181880180029F8DA401C4900F5D170BCCE
:10B8200040084000704710B5002B08DA0024401C87
:10B83000614192185B411A4301D14008400010BD9C
:10B84000F0B51FB482B005460C0003D0084600F0E6
:10B85000CFFB02E000F0CCFB2030024600902146F6
:10B860002846FFF76BFF049B059A04460F461843D2
:10B870001143084314D0184610431BD000984021B0
:10B880000A1A18460599FFF769FF05460E46009A01
:10B8900005990498FFF752FF084305D0012004E002
:10B8A0002046394607B0F0BD0020C11705430E43BE
:10B8B0002C43374300990E986305401A7905E40A32
:10B8C00000220C43FD0A0A3002D500200146E9E7B8
:10B8D0000105101969410C9C0D9D00196941FFF784
:10B8E000A2FFDFE74A0009030123090B1B051943E7
:10B8F0000A4B10B5520D9A4202DA0020014610BDE3
:10B90000064B34339A4203DC9A1AFFF727FF10BD27
:10B91000034BD218FFF712FF10BD0000FF03000019
:10B92000CDFBFFFF10B5002904DB0124E4074042F2
:10B930008C412146002B04DB1C460123DB075242CD
:10B94000A341994200D1904210BD0000064C012550
:10B95000064E05E0E36807CC2B430C3C98471034B7
:10B96000B442F7D3FFF7B0FBB0FC0100D0FC0100FC
:10B9700070B58C180578401C6B075B0F01D10378FC
:10B98000401C2A1106D10278401C03E006780E7094
:10B99000401C491C5B1EF9D12B0705D40023521E05
:10B9A0000DD40B70491CFAE70378401CCB1A921C8B
:10B9B00003E01D780D70491C5B1C521EF9D5A14295
:10B9C000D8D3002070BD0000F0B5804887B00025B6
:10B9D00005607F4C2078032860D1A07800285DD0D6
:10B9E0007C482570806801218902081AE1697A4E35
:10B9F0004900705201F082F9FFF730FE0E22D24367
:10BA0000FFF7F0FD0022754BFFF70CFDFFF734FE4A
:10BA1000E769734A79005052705A0590FFF703FEA8
:10BA2000214640310968FFF70DFC2646383631685B
:10BA3000FFF7AFFB6B49BA008850009020464C30AE
:10BA40008068216AFFF7FEFB0390208AFFF7EBFD79
:10BA5000214640318968FFF7F5FB0399FFF7EAFBC0
:10BA60007060019020464C3040680099FFF7EAFB77
:10BA70000199FFF7E3FB30600598208200987F1C56
:10BA8000E76120623846FF38F53807D1E561356057
:10BA90007560258201202562A072A570E0897D2154
:10BAA000C90088427ED14A4EE5810127E7725836A7
:10BAB000B068E06201F022F9B060E16A884203D226
:10BAC000494A511A401800E0401A014620630120FB
:10BAD000C003814203D2401A616B401802E0626BDE
:10BAE0005118081A6063A079002801D0A571E77089
:10BAF0002079002801D0257167716078002831D045
:10BB000065700027012001F09DFD052002F0E2FD97
:10BB1000012001F097FD322002F0DCFD7F1CFFB216
:10BB2000032FEFD3962002F0D5FD0027012001F06E
:10BB300089FD052002F0CEFD012001F083FD3220B9
:10BB400002F0C8FD7F1CFFB2022FEFD3962002F057
:10BB5000C1FD012001F076FD052002F0BBFD0120B2
:10BB600001F070FD01F0CAF8A062B079401CC0B2CB
:10BB7000B0713C2821D1B5717079401CC0B2707190
:10BB80003C281AD175713079401CC0B23071182828
:10BB900013D13571F078401CC0B2F0701E280CD162
:10BBA000F57000E009E0B078401CC0B2B0700C281D
:10BBB00003D1B5703088401C30802078401C207044
:10BBC000E089401CE08107B0F0BD0000007100403A
:10BBD000E81F002000750040B82F002000408F4073
:10BBE000D02B002024210020FFFFFF00F0B50746E6
:10BBF000012000218FB00D910C460A912D494E6A0B
:10BC00002D4909880C914FE02C49A2008958012246
:10BC1000D205009191423ADB0025002841D0304600
:10BC2000FFF708FBFFF746FD069005910D98FFF71B
:10BC300041FD00900890019107911F486100415A11
:10BC40000C98081AFFF7F6FC079B089AFFF7DCFB35
:10BC5000089007913046FFF72DFD079B089AFFF7E4
:10BC6000E1FB059B069AFFF745FC019B009AFFF755
:10BC700027FBFFF701FD01460A98114A40001152C7
:10BC8000A41C0A98A4B2401C80B20A9009E00A4899
:10BC90006100415A0C980125081AFFF7B9FC009E73
:10BCA0000D90641C2846A4B2BC42ADD30148466244
:10BCB0000FB0F0BDE81F0020D02B00202421002071
:10BCC000A0330020F0B50024FF268BB001360125FB
:10BCD00027460694304603F067F8002807D05448FA
:10BCE0004068284203D0304603F056F82C43361DF6
:10BCF0006D007F1CB6B2042FECD3FF257D3528469E
:10BD000003F052F8002809D0284603F045F86807E8
:10BD1000044306AA0121002003F02AF8454D20071C
:10BD200014D00127002627420CD04348B200111836
:10BD300008690969C004C00E8903AA58890F002A3E
:10BD400000D090477F00761C042EECD3002C6DDAD7
:10BD500000200890401E63E0281940300778B9069B
:10BD6000890E009100214156491C49D009A900982B
:10BD700002F09FFC002843D0B8090190009801F020
:10BD800007FF80002F580198002F02D0032802D00F
:10BD90000DE0032834D1009808ABC208410794464F
:10BDA000985C490F01228A401043624698540098DB
:10BDB0000521090780004018072109024018006882
:10BDC00006A98003800F0290009802F072FC002800
:10BDD000029802D0022802D012E0032810D1019864
:10BDE000032808D1029802281ED00221009802F0F0
:10BDF00099FF761CF6B2002F02D001990098B8473F
:10BE0000641C042CA8D3002E10D06A460121002007
:10BE100002F0AEFF06990098884207D00690089875
:10BE200000263446099097E70321DFE70BB0F0BD09
:10BE30000063004000370020006500408307FF22B8
:10BE4000DB0E9A408907090E994000280BDA00079B
:10BE5000000F0838830808489B001818C3699343EB
:10BE60000B43C3617047830804489B001B18186884
:10BE7000904308431860704700ED00E000E400E0E4
:10BE8000F8B5FF20013002F01CFC002401250E4E05
:10BE90000E4F002807D00E4804600120B0607D706E
:10BEA000002001F07DFEFF20053002F00AFC002892
:10BEB00008D00748001D04600220B060BD7001205A
:10BEC00001F06EFEF8BD000000030040EC360020DB
:10BED0000001004010B506490020086048608860F5
:10BEE000C860034940390860486003F0C1FB10BDD9
:10BEF0004011014010B503F02DFB10BD10B50648F0
:10BF00004068002805D08047002801D000F0C0FE1E
:10BF100010BD01F0C3FF10BD0021002010B502F0DC
:10BF20000BF8002805D01F491D484860C8131E495A
:10BF300088611E48018CC9B201290BD1828C12077D
:10BF400008D1028D1206120F042A03D1828D120627
:10BF5000120F0AD0012921D1818C09071ED1018D30
:10BF60000906090F0A2904D007E0114A012191604E
:10BF7000F5E7828D1206120F05D00D290ED1808DA6
:10BF80000006000F0AD10B480168012904D00A49B4
:10BF9000016001680129FCD1C021416110BD000090
:10BFA000DFFF07C000050040006C0040C00F00F03C
:10BFB0000006004000EC06407593000010B50249F1
:10BFC000024803F051FC10BD48370020002000401B
:10BFD0000FB410B503A9044B044A029800F0F6F818
:10BFE00010BC08BC04B0184727DE0100FC2000206C
:10BFF0002021020C01D010211046020A01D0104667
:10C000000839020901D01046091F820801D01046E4
:10C01000891E420801D0881E7047081A704730B444
:10C020007446641E2578641CAB4200D21D46635DD5
:10C030005B00E31830BC184702E008C8121F08C1B3
:10C04000002AFAD170477047002001E001C1121F99
:10C05000002AFBD170470000202804DA012181402A
:10C060000348014201D001207047002070470000C2
:10C07000FC06FFBCF0B51FB484B007980699020D0A
:10C08000014314D04A484B491018484305140F98EF
:10C0900001280E981CD0281A401C0024464E4749FF
:10C0A000009401910290002814DA474227E00F988B
:10C0B000012443A3012808D0002104980F9A84602A
:10C0C0000360C260416009B0F0BD0E98C143F4E75F
:10C0D0004042E2E7074612E0F80707D0224633461F
:10C0E00001990098FFF79EF901910090224633468E
:10C0F00010461946FFF796F904460E467F10002FAA
:10C10000EAD10298019B0028009A0799069802DA62
:10C11000FFF788F901E0FFF7EDF904460E4600222B
:10C12000284BFFF7FFFB03D80020C043014607E080
:10C130000022254B20463146FFF7C2F8FFF7D2FB1D
:10C14000102409E0002C0ADB0A220023FFF7C6FABC
:10C15000059B30321A55641E02460A43F2D1112261
:10C16000641C059B121B1C190F9B012B03D0012380
:10C1700008430ED10AE0084304D011200E9000209D
:10C180000F9084E70E98151A6D1E0BE00E988242F0
:10C1900002DD00236D1C03E0824201DA00236D1EE4
:10C1A000002BEED004980F998260C16030C08AE7FE
:10C1B00001FCFFFF104D0000000024400000F03F94
:10C1C000300000000000F0430000E03FFFB597B0F2
:10C1D0000646002518E2252877D100242746FD4988
:10C1E000049400E00443761C32780120203A904009
:10C1F0000842F7D130782A280ED002223078014642
:10C200003039092916D804990A235943303940187E
:10C210001443761C0490F1E7189802C80491189012
:10C22000002904DA0120400304434842049002201C
:10C230000443761C30782E2814D1042004437078EF
:10C24000761C2A2809D11898761C80C8189009E015
:10C250000A214F43303FC719761C307801463039E8
:10C260000929F5D930786C2810D006DC4C281AD072
:10C2700068280ED06A2817D104E0742813D07A28D1
:10C2800012D110E00120400504430CE00121090512
:10C2900001E0032109050C437178814203D101209B
:10C2A00000052418761C761C3078119066280BD077
:10C2B00013DC58287DD009DC00287BD04528F6D037
:10C2C0004628F4D047281AD1A5E118E0632835D0D4
:10C2D000642870D0652812D19DE170286CD008DCEC
:10C2E0006728F1D069287BD06E280DD06F2806D141
:10C2F000BAE073282ED0752871D0782859D01A9AB0
:10C30000199990476D1C7EE16002400F022809D008
:10C3100003280DD00428189801680DD00D60001D69
:10C32000189070E11898EA1701680D604A60F6E706
:10C33000189801680D80F2E70D70F0E718986A46CA
:10C3400001781172001D18900020507202A8009010
:10C35000012005E0189802C8189000200091C04301
:10C3600061070DD5002101E00199491C0191B942F5
:10C3700012DA8142F8DB009A515C0029F4D10BE01B
:10C38000002101E00199491C01918142FADB019AE7
:10C390000099895C0029F5D1019904981A9B471AE4
:10C3A00021463846199A00F097FA01994019451824
:10C3B0000BE04FE02CE113E04EE00098009900788C
:10C3C000491C00911A9A199990470198401E0190B2
:10C3D000401CF2D1214638461A9B199A10E137E0E9
:10C3E0000A200021009001916002410F022907D02C
:10C3F000189A01CA1892C2179446032908D00AE075
:10C400001898C01DC108C90005C91891944607E0D5
:10C4100000B2C2179446042902D140B2C1178C461B
:10C4200000226146944506DA0A46002140429141C5
:10C430008C462D2102E0210504D52B216A4611737B
:10C44000012103E0E10701D02021F7E7029155E047
:10C450000A200AE0102008E01020009000210420AB
:10C4600004430191082703E0082000210191009076
:10C470006002410F022907D0189A01CA18920022BF
:10C480009446032908D008E01898C01DC108C900C7
:10C4900005C91891944603E080B2042900D1C0B2C6
:10C4A00000210291210729D51199702906D0009AFF
:10C4B0001021019B4A401A4305D00EE040216A46F4
:10C4C0001173012108E06146014306D030216A461C
:10C4D00011731199517302210291009A0821019B55
:10C4E0004A401A430AD16146014301D1610705D58B
:10C4F00030216A46117301217F1E0291119958293A
:10C5000004D035A10E910DA90D910DE037A1F9E7E9
:10C510006146019B009AFFF7E1F80E9B8C469B5CFD
:10C520000D9A521E0D92137061460143F0D10D9881
:10C5300005A9081A20300190600703D501200004E6
:10C54000844300E001270198874201DD381A00E0AA
:10C550000020019900904118029809180498401A87
:10C560000490E00306D421461A9B199A049800F01F
:10C57000B3F94519002706E003A81A9AC05D199976
:10C5800090476D1C7F1C02988742F5DBE0030CD5B9
:10C5900021461A9B199A049800F09EF9451904E067
:10C5A0001A9A3020199990476D1C0099481E0090E6
:10C5B0000029F5DC08E00D980D990078491C0D91D3
:10C5C0001A9A199990476D1C0199481E01900029EB
:10C5D000F1DC63E10928010030313233343536377C
:10C5E00038396162636465660000000030313233BF
:10C5F000343536373839414243444546000000005F
:10C6000000F05AF94519761C3078002800D0E2E590
:10C6100028461BB0F0BD600700D406271898C01D3F
:10C62000C108C90048680A680831C30FDB071891C0
:10C63000190001D09CA108E0210501D59BA104E0CF
:10C64000E10701D09AA100E09AA1430011985B088C
:10C65000109165280CD006DC452809D046281DD04D
:10C66000472841D141E0662818D067283CD13CE0FA
:10C670000021112F01DB112000E0781C01910090B6
:10C6800008A911A8FFF7F6FC139905910021119A4A
:10C6900015927F1C12980197009150E00120C0076D
:10C6A00003900120019008A9009711A8FFF7E2FC70
:10C6B000139A149905920022119B009212981593D7
:10C6C000059A0192002901D0104602E0791C401819
:10C6D0000190381A01D5019804E04042401E0090B4
:10C6E000781C0190C01B029043E0012F00DA012763
:10C6F0000021112F01DD112000E03846019100904A
:10C7000008A911A8FFF7B6FC13990591119A002109
:10C71000129815920091019721070CD40599B942FE
:10C7200001DB019900E00191012904DD159A491E00
:10C73000515C302906D0B84201DA011D05DA012129
:10C74000029115E00199491EEDE7002805DC0099EA
:10C75000411800910199091A03E0019A411C914284
:10C7600000DD01910099401A401C02900120C00791
:10C770000390200706D402990198814202DB002031
:10C78000C043029000206946C87707AF0121039893
:10C790000337C907884224D0022011902B20129021
:10C7A000039800280CDA404203902D20129007E0F5
:10C7B0000A210398FEF7AAFC30317F1E03903970DE
:10C7C0001199481E11900029F2DC03980028EFD13E
:10C7D000791E129808703078202108404530BF1E1D
:10C7E000387006A8C01BC01D039010980078002860
:10C7F00000D00120019941180298C0170918039828
:10C8000009180498401A401E0490E00306D42146FB
:10C810001A9B199A049800F05FF84519109800784F
:10C82000002803D01A9A199990476D1CE00324D56B
:10C8300021461A9B199A049800F04EF845191CE0FD
:10C840000098002807DB00990598884203DD1598B9
:10C85000405C199901E0199930201A9A9047009884
:10C860006D1C401C00900298401E0290002804D1CC
:10C870001A9A2E20199990476D1C0199481E019013
:10C880000029DDDC05E038781A9A7F1C1999904759
:10C890006D1C0399481E03900029F4DC21461A9B65
:10C8A000199A0498ACE600002D0000002B0000004F
:10C8B0002000000000000000F8B5044600251E46D8
:10C8C0001746880404D405E039462020B0476D1C83
:10C8D000641EF9D52846F8BDFFB50446002581B091
:10C8E0001E46C80301D5302700E02027880404D560
:10C8F00005E038460399B0476D1C641EF9D52846FB
:10C9000005B0F0BD08490120486008490A681202D4
:10C91000120A83071A430A60054A802111600649FA
:10C92000044A4A60086070470073004004E400E075
:10C9300000E100E00A10000000750040F7B584B087
:10C94000064600251788158020300290407B14464B
:10C95000002806D03A462146059800F085FD0500DE
:10C9600009D1B078002823D0059886462088001D7C
:10C97000B84202D90C2007B0F0BD684679DF002824
:10C98000F9D1218803207246505420881921401C77
:10C9900080B22080115420887146401C80B22080D3
:10C9A00041186846008802F0F3FF21884018208073
:10C9B000F078002817D0218803230A46F356C91CB3
:10C9C0000598B942D6D80221815421880122491CF8
:10C9D00089B2218042542188491C89B22180435464
:10C9E0002088401C20807068002817D021880023F0
:10C9F000C3560A46C91C0598B942BBD802218154C6
:10CA000021880A22491C89B2218042542188491C6C
:10CA100089B2218043542088401C2080308900281E
:10CA20000AD0009430460197062202210830059B67
:10CA300002F0FCFF05009ED1308A00280AD0009445
:10CA400030460197072203211030059B02F0EEFFCC
:10CA5000050090D1308B00280AD000943046019711
:10CA6000152214211830059B02F0E0FF050082D149
:10CA7000306A002806D03B462246059901F0F4F8BA
:10CA80000500D8D1706A002806D03B462246059999
:10CA900001F08CFD0500CED10298007B002807D064
:10CAA0003B4622463046059902F016FC0500C2D1ED
:10CAB0003078002807D03B4622463046059901F0E1
:10CAC000A9FD0500B7D1284655E70000174A002107
:10CAD000535C002B01D0012203E0491C0629F7D347
:10CAE00000221349012806D002280BD0032810D0B9
:10CAF000042818D112E04878002803D0002A01D079
:10CB0000012070478878002803D0002A01D0022035
:10CB10007047C878002801D00320704708790028A2
:10CB200001D00420704700207047000081200020C1
:10CB30000435002010B501220221002000F0AAFED9
:10CB4000002801D0072812D107220221012000F07D
:10CB5000A1FE002801D0072809D100210A22084699
:10CB600000F098FE002801D0072800D1002010BD59
:10CB700030B5A7B03C2101A8FEF7F7FA02216846BC
:10CB80000171002484710621C1713C2110A8FEF7B7
:10CB9000ECFA012510A805820B48159020211FA84A
:10CBA000FEF7E3FA18A8C577402000942390249458
:10CBB000064B1FAA10A901A800F086FA002801D090
:10CBC00000F066F827B030BDFE1F002091EF010095
:10CBD00010B5022000F036FD10BD000070B5002435
:10CBE000064D06E06968E000085C012101F016FED0
:10CBF000641C28788442F5D3002070BDAC2000204E
:10CC0000F8B515460C460646052A01D20720F8BDA0
:10CC100001F0DCFE002803D101F0AAFE0028F6D1C5
:10CC2000104900204E600C70C8608D6008610E4D88
:10CC30000DE0E00069688019009181786A465170C2
:10CC400000780A4A694601F035FE0028DFD1204607
:10CC5000641EE4B20028ECD1054A0021024800F02D
:10CC600053F8F8BDAC20002088FC01004DDE010027
:10CC700061DD0100BFF34F8F04490348C860BFF373
:10CC80004F8F00BFFDE700000400FA0500ED00E053
:10CC90000EB50021029000916A4601910148FFF70C
:10CCA000E9FF0EBD0140000010B58268C3689342E1
:10CCB00003D001F0A5F8002010BD052010BD00290B
:10CCC00006D0002A02D0531E134203D00920704719
:10CCD0000E2070470160838000218160C16008469A
:10CCE000704710B58268C3689A1A83889A4203D83D
:10CCF00001F090F8002010BD042010BD01484068EC
:10CD00007047000000150140094B5B68002B07D0FD
:10CD1000002A07D0002805D00068037C002B03D030
:10CD20000820704707207047417442610020704717
:10CD3000D0200020FFB59007002481B016460028BF
:10CD40003AD10125002E37D01C49680408601C49DF
:10CD5000401088601A49403988601A4F7D602F2042
:10CD600001F0D0FCBD60184D2F20AC6001F0CAFC72
:10CD7000AC700498E8602846103004704470029942
:10CD8000817046606C602C706C7001240F48240523
:10CD9000046003211420FFF751F80848803804602C
:10CDA0000B4C0198A06003211120FFF747F8606841
:10CDB000A860002005B0F0BD0720FBE780E100E09F
:10CDC0004013014000100140C020002080E200E03C
:10CDD00000150140FEB51F4B5B68002B30D00028CA
:10CDE0002ED0052901D20720FEBD4369002B27D094
:10CDF000437C012B26D0002702910446002569467A
:10CE000016460D70684600F0B5F801A802F0F8FD6E
:10CE1000002819D0012101700F49446049688160E0
:10CE2000029907614661C16068460A490079487005
:10CE30006846007800F0BCF802F0CEFB2846FEBD44
:10CE40000820FEBD0F46D7E768460425007800F0AD
:10CE5000AFF8F3E7D02000200015014010B50849D5
:10CE6000496800290AD0002808D04169002905D066
:10CE700000210174022102F0D7FB10BD082010BD73
:10CE8000D0200020F0B5274E89B01F460D00044683
:10CE900072601CD0A888296882B22348FFF70FFF70
:10CEA000002815D1A889A96882B21F481030FFF761
:10CEB00006FF00280CD120221C496846FEF73CF9E9
:10CEC00060690690207C002804D0012103E007203F
:10CED00009B0F0BD0021684601750777607C002825
:10CEE00000D00E2069464875E0680290A068039063
:10CEF00020680190606800900A480D4A083001F0EF
:10CF00006DFD0028E4D1B0702068401CE0D00548D9
:10CF1000083001F0D1FD03490122491CC81D01F070
:10CF20009DFDD5E7E02000208437002090FC010023
:10CF3000C1F7010010B501460C48FFF7D2FE04000E
:10CF400012D10B4801F082FE00280DD10849074894
:10CF50000839FFF7A9FE002806D105490122083942
:10CF6000034801F013FE0446204610BD943700200C
:10CF7000E820002030B5EFF3108172B6094A5468FA
:10CF80000123002C04D00370002900D162B630BD0B
:10CF90005360054B1D68054C254015601C60002240
:10CFA0000270F1E7F420002080E100E0FC06FFBC05
:10CFB00008494A68002A0CD000280AD1EFF31080F3
:10CFC00072B60A68044B1A6000224A60002800D139
:10CFD00062B67047F420002000E100E0F8B5074693
:10CFE00008680C460526411C01253602002906D09A
:10CFF0002946814019488160206801F078FE606808
:10D00000411C02D0002101F069FE3968A06989192C
:10D010004862607D217D3A6808439119C866386886
:10D0200006CC80194261C160207B083C012814D1E4
:10D03000A068411C02D0002101F050FEE068411CB4
:10D0400005D0854005488560E06801F050FE3A68EB
:10D05000E1689219A06891601061F8BD0005005068
:10D06000F0B50C4693B01F216A46118007260027B1
:10D070009180002809D0C17849070DD502A9FFF792
:10D080005DFC002809D102AD01E000251780002CCD
:10D090000ED0E078002802D0304613B0F0BD01AACF
:10D0A0000AA92046FFF74AFC0028F6D10AAA02E0A6
:10D0B00068460022878068468088C3B26846008838
:10D0C000C1B2284672DFE8E7FFB581B01E460A9F6D
:10D0D0001346040047D0002B45D0504D0120287046
:10D0E0000020E870202219464D48FEF725F8002060
:10D0F0006F61C0432E612881284607211830FEF752
:10D1000034F847483C212030FEF72FF84448217876
:10D1100020300170A1788170E178C1706178417030
:10D120003F4A656923695563114613632031E368FB
:10D13000A268CB608A603A49E369A269CB638A63DB
:10D14000616A00291AD001463C31024648324162E8
:10D150008A60636A1B880B80616A436A8988998048
:10D160000021436A07E00E2005B0F0BD656AAD6896
:10D170006D5C5554491C9D888D42F7D8A16A0029E1
:10D180001CD0274A943211460C398A608162A36A06
:10D190009B888B80A16A836A098819800021836A31
:10D1A00004E0A56AAD686D5C5554491C9D888D42AC
:10D1B000F7D82C210A5D1A4940310A73216A0029E7
:10D1C00009D016490A310162226A52884A80216ACE
:10D1D000026A098811806168002900D04160104A04
:10D1E0000E490020B3322031C3001B1A85009B1862
:10D1F0000C68401C63510828F6DB094A0020EB321A
:10D20000030185009B188C68401C63510828F7DBDC
:10D21000034802992030FFF723FFA5E7682000208C
:10D220000435002010B50188134C102915D01129A0
:10D2300019D01B2910D1007A00280DD1E0780521E2
:10D24000401CFDF763FF084600F018F8002803D0E3
:10D250006169002900D0884710BD817D0129FBD17B
:10D260008088208110BD00216171808821898842D9
:10D27000F8D10120E8E7000068200020F1B53F4C1C
:10D2800088B0207800280AD00898E07006A800F03E
:10D29000D1FD06980125002804D065706AE00820B9
:10D2A00009B0F0BD3548002707211830FDF75DFFB4
:10D2B000334E7078002802D0E078012807D0B0788B
:10D2C00000280CD0E078012801D0022807D121697C
:10D2D000002903D025710820884700E027710898AD
:10D2E000FFF7F4FBE0702169002909D0032801D081
:10D2F000042805D13078002802D06079002811D0A8
:10D30000A77118216846FDF730FF6846077007725D
:10D31000E1781A480B001830FEF781FE052E080F41
:10D32000191D2000A57107208847EAE7A570019024
:10D33000684605704782078213E00221A1700190C0
:10D3400068460570B18941823189018209E06846E9
:10D3500002F00AF802E0684602F032F8E0780028AD
:10D3600003D0684673DF00289AD12169002901D0D3
:10D37000A0788847002093E7A770F6E76820002090
:10D380000435002070B5054601461C220E48FDF705
:10D39000D3FE0E4C002626702968002906D00822EC
:10D3A000201DFDF7C9FE201D7ADF02E00748001DA1
:10D3B0007BDF002807D1401E60806670044A002190
:10D3C0000448FFF7A1FC70BDD03600209820002053
:10D3D0009DF9010070FC0100F8B5214C014602885E
:10D3E00000261E48E589102A13D01E4F112A1FD08F
:10D3F000122A2BD0502A1AD1881DC988A94216D1C9
:10D400004189022913D10C3000F0FEF800280CD11C
:10D4100012E08A8804464280104808220C301831F5
:10D42000FDF78AFE6670002D01D100F065FCF8BDA5
:10D430000021C943418046703868FFF70FFD00287E
:10D44000F5D0A1690029F2D08847F8BD0348082229
:10D450000C300831FDF770FEE7E70000982000204F
:10D46000D036002070FC01007CB5054608880C46CB
:10D470000930904201D90C207CBD684671DF00283C
:10D48000FAD121880820685420881B21401C80B2D2
:10D4900020802954208800A9401C80B22080401997
:10D4A00006220131FDF748FE20886946801D80B2C2
:10D4B00020800978002900D0012129542088401CAF
:10D4C000208000207CBD000010B50446FFF784FFDB
:10D4D0002146064800F040F8204601F077FD20463E
:10D4E000FFF7A0FE204600F039F910BDB42B002054
:10D4F00030B5184B0D4604000FCB85B003936B4637
:10D5000007C324D0002D22D00020C043A082286869
:10D51000A0610020A0752146684663DF002814D171
:10D5200021786846817401210182A21C04A901208E
:10D53000A0DF002809D12946204601F024FE00285A
:10D5400003D12946204602F0E2F805B030BD0E2096
:10D55000FBE7000074FC010010B500281BD0002977
:10D5600019D00A88102A17D0112A17D0502A12D1A0
:10D5700004468A1DC888238A1231984202D15389F1
:10D58000022B0FD0A388984205D1A369002B02D0AB
:10D5900052892046984710BD898801E00021C9437F
:10D5A000818210BD084600F02FF8002800D001202D
:10D5B000A07510BD07B584B000280DD0828A114B2C
:10D5C0009A420BD0827D002A08D06A46128B142A18
:10D5D00006D9072007B000BD0E20FBE70820F9E7B9
:10D5E0000022009201920292039282896B461A8075
:10D5F000039106A9029101219970808A6946A6DFEC
:10D60000E8E70000FFFF00004178027808021043BD
:10D61000C007C00F704700000149085C7047000058
:10D6200040FC01000549095C05480069C840C00785
:10D63000C00F00D0012001214840704740FC01008C
:10D640000005005005490B5C05494A6801209840D7
:10D65000034693438B601040C86070473CFC010058
:10D660000005005010B50349085C012101F074FB6E
:10D6700010BD00003CFC010010B50349085C00210E
:10D6800001F06AFB10BD00003CFC01000549095C8B
:10D6900005484068C840C007C00F00D001200121E4
:10D6A000484070473CFC0100000500507CB5002458
:10D6B000074E2546305D0122009500231146019555
:10D6C00001F0D0FA641C042CF4D300F003F87CBD04
:10D6D0003CFC010010B500242046FFF7C3FF641C8A
:10D6E000042CF9D310BD10B500242046FFF7C4FF69
:10D6F000641C042CF9D310BD0246002010B5C043B1
:10D70000054B00215C5C944201D1084610BD491CC8
:10D710000429F7D310BD000040FC010070B50E4E87
:10D7200000250C46306000290DD0012000F0AEF835
:10D73000002801D0022005E0002000F0A7F8002812
:10D7400000D00B2020707068002802D1FFF7F2F99A
:10D750000546284670BD00006020002010B51C4C16
:10D760000188606810290DD011290AD1401E60601F
:10D7700007D1FFF7DFF9002803D02168002900D086
:10D78000884710BD00281ED100210122084600F064
:10D7900081F8002801D0072811D107220221012099
:10D7A00000F078F8002801D0072808D104220221CF
:10D7B000002000F06FF8002805D0072803D021686A
:10D7C000002900D088476068401C606010BD0000E0
:10D7D0006020002010B5002000F09AF9002801D048
:10D7E000062807D1012000F093F9002801D006286F
:10D7F00000D1002010BD0000F3B581B00D460198A6
:10D80000FFF77AFF0446042813D21D481D4F1E4E11
:10D81000002D27D0012D0DD0022D0AD16000201837
:10D82000C0194578002D04D0F168002901D02846A0
:10D830008847FEBD610061187D5CCF1979780029A9
:10D840000BD071680A2251430F4A8068921CFFF77F
:10D85000C1FA002801D10198B0700B48B978103096
:10D860000155DFE78068FFF7F9FA074861006118A2
:10D870001030C919005D8D78A842D3D0FEBD0000DC
:10D8800044FC0100D83400204C20002010B5FFF7E4
:10D89000C9FE10BD70B50023042811D2440004193C
:10D8A0000D4D012A02D101290DD000224600801918
:10D8B000094E801900290CD0012906D0022906D072
:10D8C0000723184670BD0E30C2B22A55F9E74270E0
:10D8D000F7E78270F5E70000D834002010B5054A5C
:10D8E0000146127A0020D20702D0084600F050F814
:10D8F00010BD00004C200020F8B506461F4800244B
:10D900008660C26041600F46B00720D50025012225
:10D9100011462846FFF7BEFF6D1C0446042D02D2B7
:10D92000002CF4D013E0002C11D17A080421144803
:10D93000FFF766F904000AD1FFF750F9040006D199
:10D940000F48104A0021001FFFF7DEF90446F007D8
:10D9500001D0FFF7ABFE002C0ED109480A4A002186
:10D960000C38FFF7D1F9040006D10548074A012118
:10D970000838FFF7C9F904462046F8BD4C200020BE
:10D9800050FC010021DB010081DF0100D1CB01004F
:10D99000F8B55D4C054660780026002803D00020CD
:10D9A0006070FFF797FE0120584F2B00FEF737FB02
:10D9B00018970D0D2E3D4A5F64686F686FA97777E1
:10D9C000777777979A9DA0A9A9950020FFF75EFE2B
:10D9D00000280AD00020FFF745FE022D02D1E120E9
:10D9E000C0000BE07D20400108E00020FFF744FE6E
:10D9F000022D01D1C82001E0FF2091302570642163
:10DA0000FDF784FB6168414300222BE00020FFF713
:10DA10003DFE002805D00020FFF724FE192040011C
:10DA2000ECE70020FFF728FEE4E70020FFF72EFEDA
:10DA3000002803D00020FFF715FED3E70020FFF7F2
:10DA40001BFED9E70020FFF721FE002803D00020AD
:10DA5000FFF708FE02E00020FFF70EFE2570606869
:10DA6000410000223868FFF7B5F9064635E000208E
:10DA7000FFF7E8FD257007E000203FE025702CE06F
:10DA800060700120FFF7DEFD00226168EAE7607048
:10DA90000120FFF7D7FD606881004118E1E7786851
:10DAA000FFF7DCF906461120401B01D0002E03D001
:10DAB0000220FFF7D7FD10E001280BD9C821484309
:10DAC0006421FDF723FB6168002241437868FFF77A
:10DAD00081F906460220FFF7CFFD3046F8BDFFF77B
:10DAE000F9FDCBE7FFF7F6FDC6E7FFF7F3FD04E02E
:10DAF000FFF7F0FD0020FFF7BFFD0120FFF7BCFDA1
:10DB0000BCE7FFF7F0FDB9E74C20002044FC010022
:10DB100010B5FFF781FD032101F0F3F8002010BDDF
:10DB200010B500780221FFF767FE10BD0022D24336
:10DB3000830004490428CA5002D308182030027711
:10DB40007047000000370020F0B50025ED43002AA3
:10DB500002D00023042601E0042308260B4C04E035
:10DB60009F00E7597F1C04D05B1CB342F8D32846C2
:10DB7000F0BD26185DB2203635709E00A151002AF6
:10DB8000F5D1E11820310877F1E7000000370020D7
:10DB9000024909182020085670470000003700206D
:10DBA00070B5084C050009D010342168002907D051
:10DBB00008682060496828468847F6E70834F4E793
:10DBC00070BD0000EC360020F8B5214841680029FE
:10DBD0003DD00E681F494C6887688078E11B0D02B4
:10DBE0002D0AED1C002814D101201B4A00045060AE
:10DBF000194A403A506019494000086018490860C5
:10DC00001849012008602F2000F07CFD10490120F8
:10DC10008870B54200D23546E81900020D4B000A63
:10DC2000403318600B4A5168001B091B0902090A9E
:10DC30000002000AC91C814209D9506818602F20CF
:10DC400000F060FD01200549400480390860F8BDFE
:10DC5000C0200020001501404013014080E200E098
:10DC600000E100E000100140F8B5064610881446B7
:10DC70008446801D0D46984201D90C20F8BD32889B
:10DC80000720062AFAD31927FF01184BBA4201D9F7
:10DC90009A42F3D171880629F0D3B94201D9994249
:10DCA000ECD19A4203D0994201D08A42E6D80521AC
:10DCB0006046295420881221401C80B220802954BB
:10DCC0002088401C80B220804119308801F060FE1D
:10DCD0002188401880B220804119708801F058FED8
:10DCE0002188401820800020F8BD0000FFFF0000C0
:10DCF00010B5FEF7CDFF10BDF8B5164800F00EF9CF
:10DD0000144D00260C3D144C002807D061690029F1
:10DD10001CD001206A461070684616E0287800285A
:10DD200005D06169002911D0684606700DE0687859
:10DD300000280DD0A168094800220068FFF74AF8C2
:10DD4000002803D0A169002900D088472E70F8BDB3
:10DD50006168F0E7A4200020D036002070FC0100AC
:10DD6000F8B500260124154D23E06968F000471836
:10DD7000387821462A698140114218D08A432A61A5
:10DD800000F0ECFD3A782146EB68914019400346DB
:10DD9000934099420BD17978012901D0012100E00B
:10DDA00000217B684140002B01D010469847761C2B
:10DDB000F6B228788642D8D3F8BD0000AC20002007
:10DDC00010B50E4900230A784C78A24212D0521C9A
:10DDD000D2B20A70022A00D10B700A78074B920067
:10DDE00018339A580260886810180002000A886088
:10DDF000012010BD0360002010BD0000C0200020E5
:10DE0000826883881A4003689A5C0A708168491C9A
:10DE100081607047C26883881A4003689954C1685A
:10DE2000491CC160704710B50446C0B2FFF782F8C4
:10DE3000204610BD002804D00349496E016000202F
:10DE40007047032070470000A4370020F8B507464C
:10DE5000104E0125BD403068FFF700F800280DD1B5
:10DE60000D4C2069284207D1384600F077FD002884
:10DE7000E06804D0284303E0A8432061F8BDA8432C
:10DE8000E0602069002228432061A1683068FEF725
:10DE9000A1FFF8BD88FC0100AC200020F8B51E4CA5
:10DEA0002078002836D0E068002600280CD0002515
:10DEB000607800282ED1684652DF052806D0002859
:10DEC00006D0FEF7E5FE0BE00125F1E7012607E0AD
:10DED000009800F06DFC2169002901D00098884766
:10DEE000002D13D16078002814D16088694608801D
:10DEF000A06861DF052804D0002804D0FEF7C8FE22
:10DF000004E0012502E0E168A0688847002ECFD038
:10DF1000002DE5D0F8BD0000002100204188054813
:10DF20000288914204D34088814201D80120704781
:10DF3000002070479C2000201048018CC9B20129A4
:10DF400017D1818C090714D1018D09060A0F03D15D
:10DF5000828D1206120F0ED0090F012903D1828D76
:10DF60001206120F07D0032903D1808D0006000F7F
:10DF700001D000207047012070470000C00F00F062
:10DF800010B50448017AC90702D00078FFF700FDF8
:10DF900010BD00004C200020F0B5284C214610395F
:10DFA00048688B68227886469C46CF78667836E04B
:10DFB000182353436168521CC918A378D2B2934204
:10DFC00000D100220B78022B02D0032B27D123E0B3
:10DFD00003464D68194603E0A94204D00B46C969BF
:10DFE00000291CD0F8E7002919D08B4208D1C0695C
:10DFF000002805D1124F0125BD600025AC46012740
:10E000000D68C969D961002909D00B685B190B60DB
:10E0100005E00174C06900E000210028F9D19642B2
:10E02000C6D10649624610398A604860CF70704593
:10E0300001D00120F0BD0020F0BD0000D020002064
:10E0400000100140F8B52C4E044670680025009081
:10E0500041E0002C02D02046E46920E02648182345
:10E060001030017842684B43491CC9B2D218017084
:10E070008378994200D105701178506801292CD11C
:10E08000017C002929D191684160D16881601169C2
:10E09000C16051698161F178002900D04560436811
:10E0A000B268164F991A0902090AB94202D2826867
:10E0B000891806E0D11A09028268090A8A4202D93F
:10E0C000511A016000E0056045600121856001741E
:10E0D000C56101F089FA002CBBD1074810300178E6
:10E0E00040788142BAD171680098814201D0012004
:10E0F000F8BD0020F8BD0000C0200020FFFF7F0019
:10E100008AB01822DA496846FDF716F8FF21013176
:10E11000D848069040180791099108900323D64AE1
:10E1200006A96846FEF7AEFE002801D0FEF7B0FD56
:10E13000FEF7E8FB01F0DEF9D148D0490161D14991
:10E140004161012707600022CF490320FFF7D4FB7C
:10E15000002801D0FEF79CFD0120FFF78DFA6946EB
:10E160000020FFF7DBFA002801D0FEF791FD68469A
:10E17000007802287ED0002069460871BC48BD495D
:10E18000001F0068059000234822483905A801F0C7
:10E190007FF9002801D0FEF77BFD6A4601210020AF
:10E1A00001F05EF9002801D0FEF772FD684601F02B
:10E1B0004DF9002801D0FEF76BFDB44801F03CF9A1
:10E1C000002801D0FEF764FD11206946087205227F
:10E1D000AFA102A87CDF002801D0FEF759FD002581
:10E1E000009506216846019501804180FF218580C8
:10E1F0009131C1807ADF002801D0FEF749FDA648A1
:10E2000000906946A548FFF773F9002801D0FEF792
:10E210003FFDFEF7ADFC1C216846FCF7A6FF05207C
:10E22000C00301900F20000402900095032168466E
:10E230000173C58105749A4805909A48069068460E
:10E24000FFF7A0F8002801D0FEF722FD96A0FDF709
:10E25000BFFE0320FFF712F8002801D0FEF718FDDB
:10E2600048DF002801D0FEF713FD944CA07A002867
:10E2700004D000E033E0A57201F0CCF8E07A002889
:10E2800026D08E4AE572583211888D480B0A0370E9
:10E290004170937804938370D3780393C370137998
:10E2A000037156799E46467193798371626BB446C9
:10E2B000160CC671160A06724272184673466646F6
:10E2C0000093029001967FA0039B049AFDF780FEC5
:10E2D000142000F039FDA178084302D077E0012036
:10E2E0004AE72146A77058310EC97E480EC0FEF796
:10E2F00005FD7C4988608A794B790E7903900096F8
:10E3000001930292CB788A78098877A0FDF760FEA6
:10E31000FEF7F4FC734E7FA30C36B06020465830F5
:10E3200007C801F0FFFB65485830018831808E46F0
:10E330008178B170C378F37002798C46327141797B
:10E3400071718079B071B668009201910290039664
:10E350006246714671A0FDF73BFE38E0E571FEF7BD
:10E36000CDFC604E01461836B060544858300288E3
:10E37000049232808278B270C378F3709C4603793D
:10E3800096463371427972718079B071009301922F
:10E3900003910290634672466BA00499FDF718FE44
:10E3A00030460C38B16880680E1A7D20C00070437A
:10E3B000FDF754F90E22D243FDF714F902460B463D
:10E3C0006CA00096FDF704FE01F024F82772E079B6
:10E3D0000028C3D1132000F0B7FCA178084306D170
:10E3E0002046A770583007C86BA301F09BFB122092
:10E3F00000F0AAFCA178084306D12046A770583047
:10E4000007C866A301F08EFB112000F09DFC0028D8
:10E4100001D1A771E572E07800281CD0E570FEF705
:10E420006DFCA16A2F4E401A2436B0602046583049
:10E4300007C85CA301F076FB204858300188318082
:10E440008178B170C178F170017931714179717160
:10E450008079B07127716079002800D100E72148E8
:10E460006571243007C84CA301F05CFBF8E600009E
:10E4700024FC01003C290020A7F70100489100403E
:10E4800000F5014000700040CD0C0000C9D401002F
:10E49000536C617665000000D9ED0100B42B0020BB
:10E4A00011F10100F1DC01000D0A536C6176652069
:10E4B00053746172742121210D0A0000E81F0020AD
:10E4C00018210020253034642F253032642F253068
:10E4D000326420253032643A253032643A253032B5
:10E4E000640D0A00683400200D0A5B74305D20253D
:10E4F0003034642F253032642F25303264202530AB
:10E5000032643A253032643A253032642025313085
:10E51000640D0A0072657175657374005B74315D1A
:10E5200020253034642F253032642F25303264208A
:10E53000253032643A253032643A25303264202561
:10E540003130640D0A0000005B74345D20253034E6
:10E55000642F253032642F25303264202530326418
:10E560003A253032643A2530326420253130640D4A
:10E570000A0D0A003D3D3D3D3D3D3D3D3D3D207484
:10E58000203D2025666D7328256429203D3D3D3DB5
:10E590003D3D3D3D3D3D0D0A000000006572726F3E
:10E5A0007200000053796E630000000070B51446DD
:10E5B00082880E4605462088111D4118921C9942FA
:10E5C00001D8FE2A01D90C2070BD521C325420887B
:10E5D000FF21401C80B2208031542088401C80B232
:10E5E00020808119288801F0D3F92188401880B251
:10E5F0002080AA88002A09D0A968002908D080199B
:10E60000FCF79AFD2088A98840182080002070BD62
:10E61000072070BDF8B50F4601781446054601295C
:10E6200002D16878002806D02088821C9A422DD812
:10E63000012902D006E00720F8BD69784118891C3D
:10E64000994223D8181A801E86B26846068021880F
:10E65000B81C081869467DDF0028EDD1287802280B
:10E6600005D169460988B14201D809210AE008218B
:10E67000012805D16878B04202D86A46108001E0CE
:10E680006846068068460088FE2801D90C20F8BD3F
:10E690002288401CB8542088401C80B22080395405
:10E6A00020886946401C208009884018208000206E
:10E6B000F8BDC20843075B0F0120895C9840084001
:10E6C00070470121890740180068002800D0012008
:10E6D0007047000000280FD00849094A096800BFA8
:10E6E00000BF00BF00BF00BF00BF00BF00BF91421E
:10E6F00000D000BF401EF2D170470000142100205E
:10E700000024F40000280FD00849094A096800BF16
:10E7100000BF00BF00BF00BF00BF00BF00BF9142ED
:10E7200000D000BF401EF2D170470000142100202D
:10E730000024F40070B50E4C00252078002801D08C
:10E74000852513E00021A16061602161E160094835
:10E7500000680126304002D1032100F02FF800F0BC
:10E76000C3FE002801D1044886612670284670BD8A
:10E77000EC36002000E100E00005004038B5002044
:10E78000694608706846FEF7F5FB084C20780028BB
:10E7900001D1FFF7CFFFE068401CE0600120A070CE
:10E7A00068460078FEF704FC38BD0000EC36002017
:10E7B00010B5002801D1FFF7F3F910BD8207D30E81
:10E7C000FF229A408907090E10B5994000280BDAFC
:10E7D00003071B0F083B9C080C4BA400E318DC69E3
:10E7E00094430C43DC6107E08408094BA400E4185F
:10E7F000236893430B432360C106C90E0120884060
:10E80000044908600449086010BD000000ED00E004
:10E8100000E400E080E200E000E100E0F3B581B058
:10E82000054600F085FC1F4F0028284617D0FFF74B
:10E83000AFF9C0192030007F8009032802D00128D9
:10E840000BD005E018480069E840C007C00F04D0AD
:10E850000321284600F066FAFEBD0221F9E700F028
:10E8600073FC0028F8D02846FFF792F90446800090
:10E87000C11D0E4AF9318018026989B2012632435E
:10E880000261084600F088FA02980028E4D0284681
:10E89000FFF77EF9800038580028DDD00448A640F4
:10E8A0004660FEBD003700200005005000650040B6
:10E8B00000630040FEB5044625480E46001920219D
:10E8C00041560027C8171346401C01D008273CE0DA
:10E8D000F27819462046FFF737F90546401C33D039
:10E8E000B07800280BD005200007A10009180720E8
:10E8F00000020918086802229043086007E000211E
:10E900007378204600910A46019100F0BFF9F07833
:10E91000002810D00F48AA001018317802690E4B59
:10E920001A400261E206D20C8907890B0A43016989
:10E930000A43026109E00648327840192030017F1D
:10E9400092011143017700E004273846FEBD000024
:10E950000037002000650040FFE0FCFF0349096923
:10E96000C140C807C00F00D001207047000500500B
:10E9700070B5144D2879002801D0082070BD1149C8
:10E9800000204039421E0B182033401CC0B21A70C0
:10E990002028F8D300242046FFF7C8F8641CE4B20E
:10E9A000082CF8D303210620FFF708FFFF207D3055
:10E9B00000F0F2F901200449C007486001202871E5
:10E9C000002070BD403700200063004002480079FD
:10E9D000002800D00120704740370020F8B50646D7
:10E9E0000F4600791C2148431A4915464418E07E19
:10E9F000002801D00820F8BD39463046FEF7EEFA6F
:10EA000065603869206028460025002813D0FF2261
:10EA10003068397F1D328550FF223068453285507D
:10EA2000032330681B020C4AC01842603068000B98
:10EA300040B2FFF7C3FE052230680421120280189D
:10EA40000160E5752576A5750121E1762846A57654
:10EA5000F8BD00004837002080000200F8B50379B7
:10EA60001C246343134C81251C190327666800236B
:10EA7000AD003F02002E02D00668F619B560E67DB3
:10EA8000002E0ED0237E002B07D06168002902D013
:10EA90000068C01945601120F8BD2161012322766C
:10EAA00004E0E2750025E1606576257600F01AF84D
:10EAB000F8BD00004837002070B5044600791C21DD
:10EAC000074D48434019807E002808D1204600F0B9
:10EAD000B3FB20791C22012150434019817670BD7F
:10EAE00048370020F8B5044600791C2148432649E0
:10EAF0004518A87E184302D1204600F09DFB6868A7
:10EB0000002808D081210322206889001202801881
:10EB100041600020F8BDFF204530216800220A50E6
:10EB2000FF212531206800F049F90646FF2109310F
:10EB3000206800F043F90090FF214531206800F083
:10EB40003DF90746009838433043E9D03046384312
:10EB500007D12946206800F003FBE87D697E8842E2
:10EB6000DED80020E875002E01D00320F8BD002F6C
:10EB700001D00F20F8BDA97E01200029216801D015
:10EB80000860C6E74860C4E74837002070B505460E
:10EB90000C4600791C21484308494318284600F0D8
:10EBA00055F8002801D0112070BD9A7500209C6096
:10EBB0009882284600F004F870BD00004837002015
:10EBC000F8B5044600791C2148431F490026451822
:10EBD000FF2720681D37C651206801218160294622
:10EBE000206800F085FD6968002913D027E0FF2721
:10EBF0000137FF211D31206800F0E0F8002802D124
:10EC0000A88AB842F5D1A88AB84203D0294620681C
:10EC100000F06EFDA88AA97D8842E8D3A98AC81FA2
:10EC2000F9380ED0FF271D373946206800F0C6F8A6
:10EC30000028F9D020680121C1600020A875304665
:10EC4000F8BD0F26F9E700004837002000791C21A5
:10EC5000484303494018807D002800D001207047B8
:10EC60004837002070B552000A439900049D0A43BA
:10EC70002902059E0A43310405240A432407800023
:10EC80000721001909024018026070BD70B55200DA
:10EC90000A439900049D0A432902059E0A43310450
:10ECA00005240A432407800007210019090240189F
:10ECB000026070BD70B552000A439900049D0A437A
:10ECC0002902059E0A43310405240A4324078000D3
:10ECD0000721001909024018026070BD1CB500220E
:10ECE0000B46009211460192FFF7E4FF1CBD1CB5D4
:10ECF000002100910B46012201911146FFF7DAFF36
:10ED00001CBD05221207800082180720000210187F
:10ED1000026803231B049A430260026809040A4341
:10ED20000260704705221207800082180720000247
:10ED30001018026803231B049A4302600268090446
:10ED40000A4302607047000002490969C140C807D0
:10ED5000C00F70470005005001228240034800297F
:10ED600001D082607047C26070470000000500500B
:10ED700038B5084B05241B68009324026B464118E4
:10ED800005E085005D592D192D69401C20C2814286
:10ED9000F7D838BD84FC0100024940180021016009
:10EDA00070470000006000400349401800680128D7
:10EDB00000D000207047000000600040405800284C
:10EDC00000D00120704703221202801840680840DA
:10EDD00000D0012070470000F0B5504D85B01746B7
:10EDE0000C460A2A54D3297A002000291FD0287201
:10EDF0004BA0FDF7EDF8E079217A00040902084301
:10EE0000617A62790843A179237900930192029192
:10EE10000390607821780002084341BAE378A27831
:10EE200043A0FDF7D5F80120687205B0F0BD697AFE
:10EE3000002911D0687248A0FDF7CAF8E079217A5C
:10EE4000000409020843617A62790843A1792379B1
:10EE50000093019202910FE043A0FDF7B9F8E07929
:10EE6000217A000409020843617AA2790843617992
:10EE70002379009302920191039060782178000237
:10EE8000084341BAE378A27829A0FDF7A1F8CCE7BE
:10EE900038A0FDF79DF8002604E0A15D38A0FDF73D
:10EEA00097F8761CBE42F8DB36A0FDF791F8207883
:10EEB000722810D160786528B7D1A0787028B4D1B5
:10EEC000E0786C28B1D120797928AED160793128E9
:10EED000ABD10120E87120784428A6D1607865285C
:10EEE000A3D1A0786C28A0D1E07861289DD12079A9
:10EEF00079289AD16079522897D1A079652894D140
:10EF0000E079712891D12846583007C81EA300F037
:10EF100009FE0120E872687087E70000E81F002002
:10EF20000D0A5B4D61737465725D5B74325D000048
:10EF3000253034642F253032642F2530326420256B
:10EF40003032643A253032643A253032642025313B
:10EF500030640D0A000000000D0A5B4D617374659A
:10EF6000725D5B74335D00000D0A5B4D6173746507
:10EF7000725D00005B4D61737465725D000000009E
:10EF8000256300000D0A000044656C6179000000F3
:10EF900010B5002808D0032805D10220FEF79EFCFA
:10EFA00010E0FDF775FE10BD0020FEF797FC00286D
:10EFB00001D0FDF76DFEFEF70DFC002801D0FDF736
:10EFC00067FE3CDF0028ECD110BD000070B50446A0
:10EFD000384D0088AE8988B03A2846D00DDC02282A
:10EFE00047D0102813D011281CD0132830D100236B
:10EFF0001A46852130467FDF34E051283DD0522823
:10F000002BD0552824D1A088132176DF2AE00720B1
:10F01000FEF764FC002801D0FDF73AFEA088A88125
:10F0200025A013E00020FEF759FC002801D0FDF7D1
:10F030002FFE0020C043A881FDF79AFD0320FEF7B4
:10F040001DF9002801D0FDF723FE26A0FCF7C0FF24
:10F0500008B070BDFDF71CFEFAE700231A461946FA
:10F060003046A9DF0028F5D1F2E7A088132176DF2A
:10F07000F8E7A088002167DFF4E71022A11D04A8AB
:10F08000FCF75AF86846017C0029E1D0007E04288C
:10F0900003D0062801D00528DAD1022908D00120A2
:10F0A00069460870FF2083308880A088A8DFD9E7F0
:10F0B0000220F5E7E81F00203D3D3D3D3D3D3D3D43
:10F0C0003D3D3D3D3D3D3D20436F6E6E656374208B
:10F0D0003D3D3D3D3D3D3D3D3D3D3D3D3D3D3D0D90
:10F0E0000A0000003D3D3D3D3D3D3D3D3D3D3D3D3A
:10F0F0003D3D3D20446973636F6E6E656374203DD2
:10F100003D3D3D3D3D3D3D3D3D3D3D0D0A00000049
:10F1100010B50078002807D104483B21808976DFAC
:10F12000002801D0FDF7B4FD10BD0000E81F00204D
:10F130000449081820214156042901DB01207047A9
:10F14000002070470037002004490818202141564C
:10F15000042901D2012070470020704700370020A9
:10F1600030B5FF220523CD7D002409321B02C318D0
:10F17000002D8450986905D04B7ECA68D054487ED3
:10F18000401C487630BD70B500240546601C90B028
:10F190000007000F08A9103008940870601C0007D1
:10F1A000000F103048708878F9263040801C887035
:10F1B0001C2101A8FBF7D9FF6946087910210843F3
:10F1C00069460871029408A804940594079406906F
:10F1D000287808A988710320694688841120009442
:10F1E000087048708878F7213040801C0840EF2173
:10F1F0000840012630436946887014210AA8FBF7AD
:10F20000B4FF09A80A9068460B9069460E86142040
:10F210004C8688862B4668880C330AAA01A9A2DF8F
:10F2200010B070BD1FB501246B461C70197201929D
:10F2300006C8684690471FBDFF232533026800219A
:10F24000D150FF2302680933D150006801210160C9
:10F250007047000010B50446FCF7FEFE00280CD0F5
:10F26000A007C00E002C0ADA2107090F0839890807
:10F27000144A89008918C96906E0134810BDA1081D
:10F28000124A890089180968C1400806800F0428BD
:10F2900011D200280FD002280DD00D494B68E2068C
:10F2A000D20E01209040002B08D0620992008B58AA
:10F2B00003438B5004E00448401C10BD054908601E
:10F2C000002010BD00ED00E00120000000E400E09F
:10F2D000F420002000E100E0FFB50746806A81B01D
:10F2E000144600283DD0002538462030009033E0F9
:10F2F0000C20B96A68430E18B088801CFE2802D919
:10F300000C2005B0F0BD22880299401C885420884A
:10F310001622401C80B2208002990A542088401C8A
:10F3200080B2208002994118308800F031FB21889A
:10F33000401880B22080B288002A0AD0B168002923
:10F340000FD0029BC018FBF7F7FE2088B188401849
:10F3500020806D1C0098EDB2007BA842C8D8002028
:10F36000CFE70720CDE7000070B504461248134DE3
:10F37000018A2182818A61820078002818D0687908
:10F38000002815D100F0C2FB002811D028462030FB
:10F39000E06002200849207204202031C87006482D
:10F3A00000212030FDF75CFE002804D1052000E09C
:10F3B0000320A870002070BD0435002068200020C4
:10F3C00070B5044611480426018B2182818B61822D
:10F3D00000780F4D002816D06879002813D100F06E
:10F3E00095FB00280FD028462030E06002202072D4
:10F3F000064800212030C670FDF732FE002804D1F7
:10F400000620A87000E0AE70002070BD043500201A
:10F410006820002008B500216A46FF201180F530E1
:10F420006946FCF7E3FB034801494182818208BD3C
:10F43000FFFF0000E81F0020002803D00249C86039
:10F44000002070470E207047002100201CB50349A2
:10F4500001910091694660DF1CBD0000E81F00209B
:10F4600070B50E460546144614211046FBF77DFE86
:10F470000120002120802161217326726572002DF8
:10F4800000D0A072002070BD10B5FDF7F3FB10BDD9
:10F49000F8B5002903D08C070025002C01D00720E7
:10F4A000F8BD0E4E0E4FB160728073603968012452
:10F4B000214003D00A49254680310C60094910DFFC
:10F4C000002803D0002DEBD03C60F8BD3470FFF76E
:10F4D00055F91620FFF7BEFEF8BD00000021002000
:10F4E00000E100E089F40100014800787047000065
:10F4F0000021002070B50023114A05211846FDF7B0
:10F5000019FC002801D0FDF7C3FB0E4900220A6058
:10F510000120830718600B68002BFCD00A4BD860D1
:10F520000A4903240C617D25084E2D014036B56043
:10F530004A608C60064A04211160186070BD0000AA
:10F540003C2B00200001004000900040009500404E
:10F5500000920040FEB51F4C0025A768606802902D
:10F560006846FEF72DFC0190FEF716FD0646019851
:10F57000002822D000230098616817E00E680A4630
:10F58000864202D9301A086012E0801BF318002668
:10F590001660D668D169B446002E07D0FE18360230
:10F5A000360A566066469660D56115460029E5D153
:10F5B00028466160FEF746FD06E02846FEF742FD5C
:10F5C000002801D1002E02D00298FEF7FDFA00209B
:10F5D000E070FEBDC0200020012002490005086047
:10F5E0007047000000E200E010B50E4B596800299A
:10F5F00006D002680C68A24204D8A21A0A60C1614F
:10F60000586010BD0B4604E00B46C969121B002967
:10F6100004D00C689442F7D3A41A0C600260C16154
:10F62000D86110BDC02000207CB50D4606460024E0
:10F6300069460C706846FDF79DFC01A800F0E0F9F2
:10F6400000280DD00570466068460849007948706A
:10F6500068460078FDF7ACFCFFF7BEFF20467CBD96
:10F66000684604240078FDF7A3FCF7E7D0200020CB
:10F67000F8B51D4D6C68002C34D01C48002740683C
:10F68000A968401A0602360A2068B04218D8361A0D
:10F69000C7192246107CE46900280FD0002010749E
:10F6A000EB68002B07D0916950699847002805D076
:10F6B000FDF7EEFA02E0516990698847002CE3D12A
:10F6C00029786878814206D1401CC0B2687002284F
:10F6D00001D10020687004490006800D18310F50D8
:10F6E000FFF77AFFF8BD0000C020002000150140A0
:10F6F000FF221D32002383508B8A8A68D25C8B8A5A
:10F700005B1C8B82052109024018C261704770B5ED
:10F710008EB005461C216846FBF727FD6946087830
:10F720000C21084369460870002401940394049452
:10F7300005940694287808A98870022069460884F0
:10F74000601C0007000F10300794087711204877DD
:10F75000887FF9210840F721801C0840EF210840EC
:10F760000126304369468877142109A8FBF7FDFC80
:10F7700008A8099007A80A9069468E851420CC85B0
:10F78000088668882B1D09AAA2DF0EB070BD1FB5C0
:10F7900000226B461A70197281680191827506C841
:10F7A000684690471FBD10B50178002906D0012991
:10F7B00001D0022902D14068FDF76AFA10BD0000AD
:10F7C0007CB50178264D002934D001290CD00229BE
:10F7D0002DD16A461170C068691C01900122C81DB4
:10F7E000FFF73CF9684630E0406801781D48FDF7B6
:10F7F00078FA01261B4C002803D069460E70019050
:10F8000006E0A068E168814205D0002069460870E2
:10F81000084669688847A068E168081AA188884294
:10F8200006D80F490122491CC81DFFF717F97CBDF6
:10F83000AE707CBD0B480A491030FDF735FA002840
:10F8400006D00320694608706846696888477CBD11
:10F850000349012208460830FFF798F97CBD0000F3
:10F86000E020002084370020F0B50C46012185B04F
:10F8700005464902FFF7A7FA032109026F1800267F
:10F88000002826D0FF2125312846FFF797FA0028C7
:10F890001FD0FF2025302E5081208000B860A07E30
:10F8A000002801D10120686002216846017009200A
:10F8B000C0012918086808600390E17D684601725C
:10F8C000E0680190E675267606CC6846083C9047CD
:10F8D0002DE004212846FFF776FA002827D0FF21E3
:10F8E00009312846FFF76AFA002820D02146284629
:10F8F000FFF736FCE07D617E884218D1207E00282B
:10F9000007D0617EE268E0752069E0602676667661
:10F910000AE0A07E002801D10120686081208000DB
:10F92000B860E675617EE2682046FFF77BFCFF2742
:10F930001D3739462846FFF741FA00280FD0A08A24
:10F94000A17D884204D221462846FFF7D1FE06E079
:10F95000EE51A17D002902D02046FFF718FFFF27B6
:10F96000453739462846FFF729FA00280ED0EE51D0
:10F97000A07E002801D001202860E07D002805D06D
:10F98000E675617EE2682046FFF74CFC05B0F0BDED
:10F990000870000A487002207047000038B5154909
:10F9A000154A488890420FD04A78144C521CD2B263
:10F9B0004A70237B934208D3091D75DF002803D0CA
:10F9C000A169002900D0884738BD00254D70217CF1
:10F9D000002907D03B2176DF002803D0A169002948
:10F9E00000D0884761690029EED0684605708847D5
:10F9F00038BD000098200020FFFF0000D036002016
:10FA000010B509494B788C785A1CD2B2944200D177
:10FA100000220C78944201D1002010BD0270486889
:10FA200018214B43C01810BDD0200020FFB583B073
:10FA300016460C9D0D9C1F460222009501940398CA
:10FA400000F00CF8002807D13B4610223146009503
:10FA50000194039800F002F807B0F0BDFFB583B041
:10FA6000074600200C9C8646268805463AE07868C2
:10FA7000A90042181188684681805188C1800022FF
:10FA8000694601A865DF002839D1684601780598E4
:10FA9000814226D17046002801D0002200E00222D7
:10FAA0002088891842180D998A4227D87146002962
:10FAB0000AD1401C80B22080069A049911542088F3
:10FAC000401C208001208646218806980A18694635
:10FAD00001A865DF002812D16946208809784018FE
:10FAE00020806D1C3888A842C1DC704600280AD0EE
:10FAF0002088801B401E80B2FF2802D90C2007B04E
:10FB0000F0BD069988550020F9E700000448017906
:10FB1000002902D1007B002800D00120704700009E
:10FB200088200020FFB5187887B01946002816D025
:10FB30000020009001906846FBF722FB08226946EE
:10FB40002748FDF737FD082803D0002801D0FDF72E
:10FB50009FF824A0FCF73CFA00246D4638E0694683
:10FB60008C8B2248210A017044706946897F059177
:10FB700081706946C97F0491C17008A90F78077127
:10FB80004E7846718D78857109990A22090CC171E8
:10FB90000999090A01720999417201461048FDF755
:10FBA00009FD082803D0002801D0FDF771F8099855
:10FBB000009703900196029521460DA0049B059A9B
:10FBC000FCF706FA0BB0F0BD14A0FCF701FA641CB8
:10FBD000295DA142F8DC10A0FCF7FAF9F2E7000079
:10FBE000B42B00205B53656E645D0000182100207B
:10FBF0005B53656E645D253034642F253032642F8D
:10FC00002530326420253032643A253032643A257A
:10FC100030326420253130640D0A00002563000075
:10FC2000010000070B0000000900000008000000B0
:10FC30000A0000000000000000E0D70115161718A8
:10FC40001112131498340020B8340020E43400203A
:10FC500011000300F9D7010012000300F9D70100D9
:10FC600013000300F9D7010014000300F9D70100C5
:10FC7000B03600209ECADC240EE5A9E093F3A3B5BC
:10FC80000000406E000000506437002003000000B8
:10FC9000FFFFFFFFFFFFFFFFFFFFFFFFFFFFFFFF74
:10FCA000000000000000000000E0D7010300000099
:10FCB000D0FC0100E81F00203001000070B90100F5
:10FCC00008FD010018210020F81E000048C00100B6
:10FCD000C183FFFF12010227025D4709B13D0822DF
:10FCE000BD001241803FBF9960BF0A129D3FE407EB
:10FCF0000808030E2C13703642205A900801511246
:08FD0000200229401324F40045
:040000050001B0C185
:00000001FF
